{
  "contractName": "SimpleNFTCustodian",
  "abi": [
    {
      "inputs": [],
      "name": "simpleNFT",
      "outputs": [
        {
          "internalType": "contract SimpleNFT",
          "name": "",
          "type": "address"
        }
      ],
      "stateMutability": "view",
      "type": "function",
      "constant": true
    },
    {
      "inputs": [
        {
          "internalType": "contract SimpleNFT",
          "name": "instanceAddress",
          "type": "address"
        }
      ],
      "name": "setSimpleNftAddress",
      "outputs": [],
      "stateMutability": "nonpayable",
      "type": "function"
    },
    {
      "inputs": [
        {
          "internalType": "uint256",
          "name": "nftId",
          "type": "uint256"
        }
      ],
      "name": "buyNft",
      "outputs": [],
      "stateMutability": "payable",
      "type": "function",
      "payable": true
    }
  ],
  "bytecode": "0x608060405234801561001057600080fd5b506106a8806100206000396000f3fe6080604052600436106100345760003560e01c8063243adbdd146100395780635798916914610055578063dc4457751461007e575b600080fd5b610053600480360381019061004e9190610402565b6100a9565b005b34801561006157600080fd5b5061007c6004803603810190610077919061049f565b610360565b005b34801561008a57600080fd5b506100936103a3565b6040516100a0919061052b565b60405180910390f35b60008060009054906101000a900473ffffffffffffffffffffffffffffffffffffffff1673ffffffffffffffffffffffffffffffffffffffff1663f8eb5fc5836040518263ffffffff1660e01b81526004016101059190610555565b602060405180830381865afa158015610122573d6000803e3d6000fd5b505050506040513d601f19601f820116820180604052508101906101469190610585565b905060003490508181101561015a57600080fd5b60008060009054906101000a900473ffffffffffffffffffffffffffffffffffffffff1673ffffffffffffffffffffffffffffffffffffffff16636352211e856040518263ffffffff1660e01b81526004016101b69190610555565b602060405180830381865afa1580156101d3573d6000803e3d6000fd5b505050506040513d601f19601f820116820180604052508101906101f791906105de565b90508073ffffffffffffffffffffffffffffffffffffffff166108fc839081150290604051600060405180830381858888f1935050505015801561023f573d6000803e3d6000fd5b5060008054906101000a900473ffffffffffffffffffffffffffffffffffffffff1673ffffffffffffffffffffffffffffffffffffffff1663d11eccd68233876040518463ffffffff1660e01b815260040161029d9392919061063b565b600060405180830381600087803b1580156102b757600080fd5b505af11580156102cb573d6000803e3d6000fd5b5050505060008054906101000a900473ffffffffffffffffffffffffffffffffffffffff1673ffffffffffffffffffffffffffffffffffffffff16632931a108856040518263ffffffff1660e01b81526004016103289190610555565b600060405180830381600087803b15801561034257600080fd5b505af1158015610356573d6000803e3d6000fd5b5050505050505050565b806000806101000a81548173ffffffffffffffffffffffffffffffffffffffff021916908373ffffffffffffffffffffffffffffffffffffffff16021790555050565b60008054906101000a900473ffffffffffffffffffffffffffffffffffffffff1681565b600080fd5b6000819050919050565b6103df816103cc565b81146103ea57600080fd5b50565b6000813590506103fc816103d6565b92915050565b600060208284031215610418576104176103c7565b5b6000610426848285016103ed565b91505092915050565b600073ffffffffffffffffffffffffffffffffffffffff82169050919050565b600061045a8261042f565b9050919050565b600061046c8261044f565b9050919050565b61047c81610461565b811461048757600080fd5b50565b60008135905061049981610473565b92915050565b6000602082840312156104b5576104b46103c7565b5b60006104c38482850161048a565b91505092915050565b6000819050919050565b60006104f16104ec6104e78461042f565b6104cc565b61042f565b9050919050565b6000610503826104d6565b9050919050565b6000610515826104f8565b9050919050565b6105258161050a565b82525050565b6000602082019050610540600083018461051c565b92915050565b61054f816103cc565b82525050565b600060208201905061056a6000830184610546565b92915050565b60008151905061057f816103d6565b92915050565b60006020828403121561059b5761059a6103c7565b5b60006105a984828501610570565b91505092915050565b6105bb8161044f565b81146105c657600080fd5b50565b6000815190506105d8816105b2565b92915050565b6000602082840312156105f4576105f36103c7565b5b6000610602848285016105c9565b91505092915050565b6000610616826104f8565b9050919050565b6106268161060b565b82525050565b6106358161044f565b82525050565b6000606082019050610650600083018661061d565b61065d602083018561062c565b61066a6040830184610546565b94935050505056fea26469706673582212203aea75d254fa95f17455734ab4e7c9c2e381a163af29e070b4ed18056a27f0f864736f6c634300080a0033",
  "immutableReferences": {},
  "source": "// SPDX-License-Identifier: MIT\r\npragma solidity ^0.8.9;\r\n\r\nimport \"./SimpleNFT.sol\";\r\n\r\ncontract SimpleNFTCustodian {\r\n    SimpleNFT public simpleNFT;\r\n\r\n    function setSimpleNftAddress(SimpleNFT instanceAddress) public {\r\n        simpleNFT = instanceAddress;\r\n    }\r\n\r\n    function buyNft(uint256 nftId) public payable{\r\n        uint salePrice = simpleNFT.getSalePrice(nftId);\r\n        uint amountPaid = msg.value;\r\n\r\n        require(amountPaid>=salePrice);\r\n        \r\n        address payable currentOwner = payable(simpleNFT.ownerOf(nftId));\r\n        currentOwner.transfer(amountPaid);\r\n        simpleNFT.transferNft(currentOwner, msg.sender, nftId);\r\n        simpleNFT.markAsSold(nftId);\r\n\r\n    }\r\n\r\n}\r\n",
  "sourcePath": "C:\\Users\\Acer\\Desktop\\Solulab\\Web-3-Learnings\\simple-nft\\contracts\\SimpleNFTCustodian.sol",
  "compiler": {
    "name": "solc",
    "version": "0.8.10+commit.fc410830.Emscripten.clang"
  },
  "schemaVersion": "3.4.3",
  "updatedAt": "2021-11-20T01:40:14.935Z",
  "networkType": "ethereum",
  "devdoc": {
    "kind": "dev",
    "methods": {},
    "version": 1
  },
  "userdoc": {
    "kind": "user",
    "methods": {},
    "version": 1
  }
}